:020000040800F2
:10000000288B00200D020008331E0008A91C0008E0
:10001000311E0008950700088B3900080000000019
:100020000000000000000000000000004B2100085C
:10003000A908000800000000492100084D2100081F
:1000400027020008270200082702000827020008EC
:1000500027020008270200082702000827020008DC
:1000600027020008270200082702000827020008CC
:1000700027020008270200082702000827020008BC
:1000800027020008270200082702000827020008AC
:100090001539000827020008270200082702000877
:1000A000270200082702000827020008270200088C
:1000B000270200082702000827020008270200087C
:1000C000270200082702000827020008270200086C
:1000D000270200082702000827020008270200085C
:1000E000270200082702000827020008270200084C
:1000F000270200082702000827020008270200083C
:10010000270200082702000827020008270200082B
:10011000270200082702000827020008270200081B
:10012000270200082702000827020008270200080B
:1001300000F002F800F05AF80AA090E8000C82449F
:100140008344AAF10107DA4501D100F04FF8AFF27C
:10015000090EBAE80F0013F0010F18BFFB1A43F0A5
:10016000010318477C4300009C4300000A444FF001
:10017000000C10F8013B13F0070408BF10F8014B06
:100180001D1108BF10F8015B641E05D010F8016B4B
:10019000641E01F8016BF9D113F0080F1EBF10F8AF
:1001A000014BAD1C0C1B09D16D1E58BF01F801CBD2
:1001B000FAD505E014F8016B01F8016B6D1EF9D555
:1001C0009142D6D37047000000230024002500266A
:1001D000103A28BF78C1FBD8520728BF30C148BFAA
:1001E0000B6070471FB51FBD10B510BD00F0CFF8F4
:1001F0001146FFF7F7FF03F0FFFB00F0EDF803B443
:10020000FFF7F2FF03BC00F0F5F800000948804753
:1002100009480047FEE7FEE7FEE7FEE7FEE7FEE7E8
:10022000FEE7FEE7FEE7FEE704480549054A064B00
:1002300070470000C921000831010008288500200E
:10024000288B00202887002028870020032A40F2DE
:10025000308010F0030C00F0158011F8013BBCF168
:10026000020F624498BF11F801CB00F8013B38BF80
:1002700011F8013BA2F1040298BF00F801CB38BF8E
:1002800000F8013B11F0030300F02580083AC0F0AC
:10029000088051F8043B083A51F804CBA0E8081054
:1002A000F5E7121D5CBF51F8043B40F8043BAFF387
:1002B0000080D20724BF11F8013B11F801CB48BFE1
:1002C00011F8012B24BF00F8013B00F801CB48BF17
:1002D00000F8012B704710B5203AC0F00B80B1E850
:1002E0001850203AA0E81850B1E81850A0E818506B
:1002F000BFF4F5AF5FEA027C24BFB1E81850A0E874
:10030000185044BF18C918C0BDE810405FEA827C8D
:1003100024BF51F8043B40F8043B08BF7047D207A4
:1003200028BF31F8023B48BF11F8012B28BF20F845
:10033000023B48BF00F8012B70474FF0000200B5A8
:10034000134694469646203922BFA0E80C50A0E8F8
:100350000C50B1F12001BFF4F7AF090728BFA0E8A6
:100360000C5048BF0CC05DF804EB890028BF40F872
:10037000042B08BF704748BF20F8022B11F0804FB4
:1003800018BF00F8012B70477047704770477546DB
:1003900000F02CF8AE4605006946534620F00700F1
:1003A000854618B020B5FFF73FFFBDE820404FF06D
:1003B00000064FF000074FF000084FF0000B21F04F
:1003C0000701AC46ACE8C009ACE8C009ACE8C0091C
:1003D000ACE8C0098D46704710B50446AFF3008005
:1003E0002046BDE81040FFF70ABF000000487047F4
:1003F000C884002001491820ABBEFEE72600020099
:10040000704700002DE9F041334C1021204600F0E8
:10041000E9FB324D06464FF400784146284600F08D
:10042000E1FB46EA4007A6153146284600F0DAFB14
:1004300047EA80078021284600F0D4FB47EAC0073E
:100440004021284600F0CEFB47EA0017202128462D
:1004500000F0C8FB47EA40171021284600F0C2FB15
:1004600047EA80170821284600F0BCFB47EAC01580
:1004700004211B4800F0B6FB45EA0025E1142046A4
:1004800000F0B0FB45EA40252115204600F0AAFB0C
:1004900045EA80258021204600F0A4FB45EAC025DE
:1004A0003146204600F09EFB45EA00354146204695
:1004B00000F098FB0B4C45EA40353146204600F0F1
:1004C00091FB45EA80354146204600F08BFB45EA2A
:1004D000C03080B2BDE8F08100100140000C014046
:1004E000001401400008014010B51D4C072834D20B
:1004F000DFE800F033041012191B2C000122042144
:10050000204600F074FB00220221204600F06FFB21
:10051000002215E0002200E001220421204600F024
:1005200066FB0122F0E7002200E0012204212046C0
:1005300000F05DFB00220221204600F058FB012262
:100540002046BDE81040012100F051BB00220421EB
:10055000204600F04CFB0122EDE70022CFE700002F
:100560000008014010B5124C00220821204600F07E
:100570003EFB01229103204600F039FB00220121BD
:10058000204600F034FB0122D103204600F02FFB6F
:1005900001220421204600F02AFB012202212046EC
:1005A00000F025FBBDE810400120FFF79DBF0000D3
:1005B000001001402DE9F05F4E4C07464FF4804A91
:1005C00001225146204600F012FB4FF4004B01225D
:1005D0005946204600F00BFB47480178012903D11A
:1005E0000021017000F08CF84FF400584646414657
:1005F000204600F0F7FA00F099F800253146204631
:1006000000F0F0FA06464CF250390EE04146204622
:1006100000F0E8FA0646002000F030F96D1CADB29B
:100620004D4502D90120BDE8F09F002EEED10022F9
:100630005146204600F0DBFADFF8C08080214046BA
:1006400000F0D0FA01225E465946204600F0CFFA6B
:10065000012000F013F900223146204600F0C7FACD
:10066000022000F00BF900258021404600F0BAFA84
:1006700009E08021404600F0B5FA6D1CADB24D4551
:1006800001D90220CFE70028F3D0FFF7BBFE388066
:1006900001223146204600F0AAFA01250A2000F086
:1006A000EDF800223146204600F0A1FA0A2000F0C1
:1006B000E5F8FFF7A7FE27F81500052000F0DEF8A3
:1006C00001223146204600F092FA6D1CEDB2072D52
:1006D000E4D901225146204600F089FA0122042182
:1006E000204600F084FA01220221204600F07FFA21
:1006F000002098E700100140980100200008014008
:1007000010B5094C01221146204600F070FA012074
:1007100000F0B4F800220121204600F068FABDE89C
:100720001040012000F0AAB80010014010B5184C8C
:1007300001220421204600F05AFA012000F09EF820
:1007400000220421204600F052FA012000F096F821
:1007500001220421204600F04AFA0122022120460B
:1007600000F045FA012000F089F80022022120461D
:1007700000F03DFA012000F081F80122022120461C
:1007800000F035FABDE81040012000F077B8000015
:1007900000100140FEE70020704700207047000075
:1007A00010B500220449054801F002FE044903483F
:1007B00001F0F8FD002010BDD47B0020905F0020E8
:1007C000EC7700200E4810B5012202720D4B026832
:1007D0000978D1540168491C0160052901DB002119
:1007E000016001EB4102C2EBC11100EBC1010648FF
:1007F000093101F0D7FD044801F0B8FD002010BD1B
:1008000054640020E5770020905F0020094A10B56D
:10081000D2F8B822D2F814220AB1012010BD0A463B
:100820000146044801F0C4FDBDE81040014801F054
:100830001DBE0000905F00200E48016821F080710D
:100840000160016841F0807101600B48016821F08E
:1008500001010160016841F0010101600021416076
:1008600000BF00BF00BF406808B1002070470120F2
:1008700070470000FCED00E0001000E031B5084DCD
:100880006C6801F031F80749B0FBF1F0009948437A
:10089000009068680099001B8842FAD338BD0000B8
:1008A000001000E040420F00704772B6FEE770B5DE
:1008B0004379012B1CD00126467102230371056880
:1008C0002B6802F0100440F6FE72A2409343D1E977
:1008D00000210A43A2401A432A6001680A68C02323
:1008E000A3409A430A60067100214171084670BD19
:1008F000022070BD70B5040003D02079002510B12E
:1009000005E0012070BD6571204600F007F8022067
:100910002071256101202071002070BD00B585B0D7
:100920000021009101910291039100680E498842D3
:1009300018D10E48C16941F00051C161C16901F08F
:1009400000510491816941F0040181618069694627
:1009500000F004000490302000900320019004482F
:1009600000F044F805B000BD0074004000100240E3
:100970000008014018B5046800940068104421B1D3
:10098000143000900360002018BD0830F9E770B5FE
:100990004279012A1ED001224271022303710468A8
:1009A000266801F0100302FA03F52E4326600029A1
:1009B000016811D00C6804F470153C249C40A542D9
:1009C00003D14B6843F002034B6002710021417177
:1009D000084670BD022070BD0B68C3F383030F2B64
:1009E000F3D14B6843F00103EEE700002DE9F84F27
:1009F000DFF8C891002409F1040A0AF1040B234628
:100A00000F270BF1040ED1E00125A54006EA0502EF
:100A1000AA4276D1DFF8A8C14E68A6EB0C0866455D
:100A20002BD00DDC032E34D005DC36B3012E19D0CB
:100A3000022E2FD11BE0112E16D0122E2AD119E032
:100A4000B8F5881F19D006DCB8F5803F15D0B8F589
:100A5000801F1FD111E0B8F5001F0ED0B8F5041F9C
:100A600018D10AE0CB6815E0CB681B1D12E0CB68FB
:100A700008330FE0CB680C330CE08B682BB1012BF3
:100A80004FF0080303D0456104E0042302E0056150
:100A900000E00023FF2A01D8064601E000F1040629
:100AA0004FEA840501D9A5F12005D6F8008007FAA0
:100AB00005FC28EA0C0803FA05F548EA0508C6F81B
:100AC00000804D68ED0070D53E4DAE6946F00106E0
:100AD000AE61AD6924F0030605F0010500953A4DBD
:100AE00006EB050CDCF80850A607360F07FA06F8E7
:100AF00025EA0805DFF8D480404503D14FF000080F
:100B000025E052E0DFF8C880404502D14FF00108EF
:100B10001DE0DFF8C080404502D14FF0020816E02A
:100B2000DFF8B480404502D14FF003080FE0DFF852
:100B3000AC80404502D14FF0040808E0DFF8A08007
:100B4000404502D14FF0050801E04FF0060808FAD1
:100B500006F848EA0508CCF808804D68D9F8006026
:100B6000ED034D4601D5164300E096432E604D68D7
:100B7000DAF80060AD03554601D5164300E0964310
:100B80002E604D68DBF80060ED025D4601D516432E
:100B900000E096432E604D68DEF80060AD027546B9
:100BA00001D5164300E096432E60641C0A68164681
:100BB000E2407FF429AFBDE8F88F00000004014057
:100BC0000000111000100240000001400008014028
:100BD000000C0140001001400014014000180140C9
:100BE000001C01408068084000D0012070470AB115
:100BF000016170470904FBE7014880687047000005
:100C000074000020024881680278114481607047B6
:100C100074000020074810B5016841F01001016020
:100C2000032000F075F80F2000F006F800F024F81B
:100C3000002010BD0020024070B50D4D04464FF459
:100C40007A712878B1FBF0F00A490968B1FBF0F03D
:100C500001F016F848B9102C07D200222146501E88
:100C600000F036F800206C6070BD012070BD0000FF
:100C700074000020800000200C4808B5816941F014
:100C800001018161816901F001010091C16941F0B7
:100C90008051C161C06900F08050009004484168F3
:100CA00021F0E06141F00071416008BD0010024098
:100CB00000000140002809DB00F01F0201219140E3
:100CC0004009800000F1E020C0F8001170470000EA
:100CD000F0B40E4B1B680C46C3F30223C3F10705A7
:100CE000042D00D90425191D072901D2002300E095
:100CF000DB1E012606FA05F1491E214099409E405F
:100D0000761E16403143F0BC02F066BE0CED00E0EA
:100D1000064900F0070208684FF6FF03184040EA52
:100D20000220034A10430860704700000CED00E009
:100D30000000FA0510B50C0607D501F0070101EB1C
:100D4000810100EBC100283005E001EB810100EBDF
:100D5000C10000F5B47099B232B101220273018171
:100D6000190C4181002010BD00220273C180F9E7F7
:100D7000704701EB810200EBC202D0F8E802D26BAF
:100D800001F023BD01EB810200EBC202D0F8E802C2
:100D9000D2F87C2101F07CBD70B504460B0601F051
:100DA000070000EB800104EBC1014FF001024FF09E
:100DB000000503D581F82920283103E081F8695125
:100DC00001F5B471087094F8A802012808D084F8DD
:100DD000A822206802F09CF984F8A852002070BD77
:100DE000022070BD70B5044601F00F0062689042A9
:100DF00001D9012070BD0B0601F0070000EB800156
:100E000004EBC1014FF001024FF0000503D581F85A
:100E10002920283103E081F8695101F5B4718D7002
:100E2000087094F8A802012808D084F8A822206845
:100E300002F00BFA84F8A852002070BD022070BDA9
:100E40002DE9F05F04685FEA424C0B788D69B4F8D5
:100E500050C04FF000064BF68F7948F2800A48F6F2
:100E60008F7B48F2C00E4FF480672AD54FF00208FE
:100E700008EBC308C44407EB4C07E45BC4F3090464
:100E8000A54203D32D1B8D6101D00BE08E61066856
:100E900036F8235005EA090585F4005545EA0A05A8
:100EA00026F82350520609D50D78036833F825201B
:100EB00002EA0B0242EA0E0223F8252084B30A89D3
:100EC00029E04FF0060808EBC308C44407EB4C07C1
:100ED000E45BC4F30904A54203D32D1B8D6101D04B
:100EE0000BE08E61066836F8235005EA090585F4A3
:100EF000005545EA0A0526F82350520609D40B7816
:100F0000056835F8232002EA0B0242EA0E0225F8B2
:100F100023202CB14A8949690068234602F004FD68
:100F20002046BDE8F09F2DE9F05F054600680C46BD
:100F30005FEA426C16468B692278B0F850C048F6DA
:100F40008F774CF280094FF6FF7B4FF4004E4FF441
:100F5000806A4FF000017BD54FF0020808EBC20811
:100F6000E0440AEB480C30F80C00C0F3090083425F
:100F700011D91B1AA3610FD0730407D52E6836F858
:100F800022303B4043EA090326F8223094F824201B
:100F9000012A50D04EE1A161607810B1012813D030
:100FA0001AE02868B0F85030184400EB0210B0F88E
:100FB000042422F4F842A0F80424B0F8042442F4F3
:100FC0000042A0F8042407E02868B0F85030184424
:100FD00000EB0210A0F804146278286812B1012A0C
:100FE00011D018E0B0F850100844217800EB01103F
:100FF000B0F80C1421F4F841A0F80C14B0F80C145B
:1010000041F4004105E0B0F850201044227800EB94
:101010000210A0F80C1421782846FFF7AAFE7004ED
:10102000B8D521782A6832F82100384040EA090012
:1010300022F82100FEE0626902446261E269024432
:10104000E2612369226A9A4203D31846111A04E026
:1010500038E084F824100AB110462162617811B199
:10106000012923D02BE02968B1F8502011442278BF
:1010700001EB021101F2044148B13E280FD84208A9
:10108000C30700D0521C0BEA82220A8017E00A88AC
:1010900022F4F8420A800A8842F40042F5E7420945
:1010A000C30600D1521E4EEA8222EEE72968B1F84B
:1010B00050201144227801EB0211A1F8040483B2FC
:1010C0002289B3E04FF0060808EBC208E0440AEBBF
:1010D000480C30F80C00C0F30900834211D31B1AEE
:1010E000A3610FD0730407D42E6836F822303B403A
:1010F00043EA090326F8223094F82420012A50D02C
:1011000098E0A161607810B1012813D01AE0286836
:10111000B0F85030184400EB0210B0F8042422F468
:10112000F842A0F80424B0F8042442F40042A0F8E5
:10113000042407E02868B0F85030184400EB02108F
:10114000A0F804146278286812B1012A11D018E0BE
:10115000B0F850100844217800EB0110B0F80C14DE
:1011600021F4F841A0F80C14B0F80C1441F400413B
:1011700005E0B0F850201044227800EB0210A0F8EF
:101180000C1421782846FFF7F4FD700452D422781D
:10119000296831F82200384040EA090021F822008D
:1011A00048E0626902446261E2690244E2612369E3
:1011B000226A9A4203D31846111A216204E00AB146
:1011C0001046216284F824106278296812B1012A3D
:1011D00022D029E0B1F850201144227801EB02110D
:1011E00001F20C4148B13E280FD84208C30700D095
:1011F000521C0BEA82220A8016E00A8822F4F84286
:101200000A800A8842F40042F5E74209C30600D189
:10121000521E4EEA8222EEE7B1F8502011442278A5
:1012200001EB0211A1F80C04628983B2616928689C
:1012300002F098FB21782A6832F8210048F6BF7343
:10124000184080F0300048F28003184322F8210053
:101250000020BDE8F09F01F0070101EB810100EBE8
:10126000C100D0F8840170472DE9F04104460F0613
:1012700001F0070000EB800104EBC1014FF0010613
:101280004FF0000503D581F82960283103E081F88B
:10129000695101F5B47108700A61CB704A7802B1E6
:1012A000C881022B00D10D7194F8A802012809D041
:1012B00084F8A862206801F0FDFD284684F8A85251
:1012C000BDE8F0810220FBE770B50C4601F0070590
:1012D00005EB850100EBC101C1E95F230022C1F8E4
:1012E000842181F8692181F8685101F5B4716207A0
:1012F000006801F0FFFF002070BD70B504460D4688
:1013000001F007006168884201D9012070BD2906FB
:101310004FF000064FF0010207D500EB800104EB0F
:10132000C10181F82920283107E005EB850104EB94
:10133000C10181F8696101F5B4718A70087094F88F
:10134000A802012807D084F8A822206801F0B9FF7C
:10135000680702D006E0022070BD04F52C712068F9
:1013600001F071FF84F8A862002070BD70B50C46D2
:1013700001F0070505EB850100EBC101C1E90F2371
:10138000012281F84C208B6400234B6481F82920D2
:1013900001F8285F6207006801F0ACFF002070BD13
:1013A0001FB50446006802F0BBFA000402D52046CF
:1013B00000F040FD206802F0B3FA40050CD520682B
:1013C00030F8441F21F480610180204600F01EF9AE
:1013D0000021204600F035F9206802F0A1FA40040F
:1013E00005D5206830F8441F21F480410180206831
:1013F00002F096FA800405D5206830F8441F21F4E5
:1014000000510180206802F08BFAC00414D52068D6
:1014100030F8401F21F004010180206830F8401F9F
:1014200021F008010180204600F003F9206830F81F
:10143000441F21F480510180206802F071FA0005F8
:101440003ED522680020694632F8203021F810305D
:10145000401CC0B20828F7D332F8400F40F001001A
:101460001080206830F8402F22F0010202802068AE
:10147000B0F844205205FBD530F8442F22F48062A6
:1014800002800020236831F8102023F82020401C1F
:10149000C0B20828F6D3206830F8401F41F0080198
:1014A0000180206830F8441F21F400610180206829
:1014B00030F8401F41F004010180204600F0F6F8AA
:1014C000206802F02DFA800508D5206830F8441F06
:1014D00021F400710180204600F0AFF8206802F08E
:1014E0001FFAC00505D5206830F8441F21F480712B
:1014F00001801FBD2DE9F04186B0040004D094F8AE
:10150000A902002520B108E0012006B0BDE8F08165
:1015100084F8A852204600F05BF8032084F8A90262
:10152000206801F089FE04F1100114228846684603
:10153000FEF7D1FE94E80F0001F0E8FD0226D0BBD3
:101540000021206802F006FA002001270FE000BF0A
:1015500000EB800104EBC10181F8297001F8280F2C
:10156000C881CD700D614D61401CC0B28D61616854
:101570008142EDD8002011E000EB800104EBC101B5
:1015800081F8695181F8680181F86B51C1F878518F
:10159000C1F87C51401CC0B2C1F8805161688142E1
:1015A000EAD8142241466846FEF795FE94E80F00FB
:1015B00001F039FE10B184F8A962A5E784F824503F
:1015C00084F8A972206801F02CFE00209DE700003D
:1015D00008B500680B49884212D10B48C16941F433
:1015E0000001C161C069002200F4000000901146B2
:1015F0001420FFF76DFBBDE808401420FFF75ABB2D
:1016000008BD0000005C00400010024070B50446B8
:1016100080680125022801D0FFF747F92946D4F850
:10162000E80201F01EFAD4F8E802BDE8704001F0CB
:10163000DAB9D0F8E80201F0FEB9D0F8E80201F01A
:1016400004BA10B5044690F8A80201280BD0012076
:1016500084F8A80284F82410206802F07DF90020A4
:1016600084F8A80210BD022010BDD0F8E82200F5D1
:101670002C71104601F001BA10B5044690F8A8028A
:10168000012810D0012084F8A802206802F038F95F
:1016900001212046FFF76CFB206801F0C0FD00200F
:1016A00084F8A80210BD022010BD000010B5044649
:1016B000D0F8E80201F020FAA069002804D003481D
:1016C000016841F00601016010BD000010ED00E06E
:1016D0002DE9F84305460078354CC00754D0E06941
:1016E0000026C00008D4E06940F08050E061E06965
:1016F000012600F0805000902E480168C90512D4E0
:101700000168804641F480710160FFF775FA074671
:1017100005E000BFFFF770FAC01B642823D8D8F893
:101720000000C005F6D5206A10F4407021D0A988C9
:1017300001F4407181421CD0206A1F49012220F42B
:1017400040700A6000220A602062C00711D0FFF7D3
:1017500053FA074641F2883808E000BFFFF74CFA19
:10176000C11B414502D90320BDE8F883206A8007E8
:10177000F4D5206A696820F44070084320621EB1E5
:10178000E06920F08050E0612878800705D5606826
:10179000A96820F44040084360602878C00605D559
:1017A0006068696920F48000084360600020DBE71E
:1017B0000010024000700040400442422DE9F04712
:1017C0000F46050061D0434E306800F00700B84274
:1017D00009D2306820F0070038433060306800F0EC
:1017E0000700B84251D128683B4C810712D5400709
:1017F00003D5606840F4E06060602878000703D596
:10180000606840F4605060606068A96820F0F00093
:10181000084360602878C00728D06868012810D085
:101820002168022810D0890700292EDA616821F08A
:10183000030101436160FFF7DFF9804641F2883917
:101840000DE021688903EFE78901EDE7FFF7D4F99F
:10185000A0EB0801494502D90320BDE8F087606884
:10186000696800F00C00B0EB810FEFD1306800F038
:101870000700B8420BD9306820F0070038433060C9
:10188000306800F00700B84201D00120E5E7287871
:10189000400705D56068E96820F4E06008436060AF
:1018A0002878000706D56068296920F4605040EA6E
:1018B000C100606000F01EF86168084AC1F30311BE
:1018C000515CC8400649086006480068FFF7B4F953
:1018D0000020C2E70020024000100240D04400086F
:1018E0008000002078000020014800687047000058
:1018F0008000002012A185B00FC98DE80F0014A050
:10190000144A006804905168134801F00C03042B3A
:1019100010D0082B0ED1C1F38343C9031DF8030077
:101920000AD5516804AAC1F34041515C0A4A5043A8
:10193000B0FBF1F005B0704708494843FAE70000F2
:1019400002030405060708090A0B0C0D0E0F101000
:10195000010200000010024000127A0000093D0060
:101960002DE9F84F040070D02078C04DC00749D051
:101970006868C0F38100012807D06868C0F381005F
:10198000022809D16868C00306D52868800339D5C4
:1019900060680028E7D035E06068B0F5803F0BD084
:1019A00010B1B0F5A02F11D0286820F48030286045
:1019B000286820F4802002E0286840F48030286005
:1019C000606890B1FFF718F906460AE0286840F40D
:1019D00080202860F0E700BFFFF70EF9801B642825
:1019E00073D828688003F7D50CE0FFF705F90646A1
:1019F00005E000BFFFF700F9801B6428F0D82868D5
:101A00008003F7D420789A4E80074FF001094FF0F9
:101A1000000839D5686810F00C0F07D06868C0F36B
:101A20008100022809D16868C00306D428688007AD
:101A300014D52069012808D110E02069B0B1C6F89A
:101A40000090FFF7D9F8074605E00AE1FFF7D4F860
:101A5000C01B0228C4D828688007F7D528686169A8
:101A600020F0F80040EAC10028600DE0C6F80080D0
:101A7000FFF7C2F8074604E0FFF7BEF8C01B0228D4
:101A800023D828688007F7D4207800072CD5794818
:101A9000A169D9B1C0F80090FFF7AEF8074604E09D
:101AA000FFF7AAF8C01B02280FD8686A8007F7D58D
:101AB00071484FF4FA510068B0FBF1F0009000BF9C
:101AC0000098411E0091FAD20EE080E0C0F800803C
:101AD000FFF792F8074604E0FFF78EF8C01B0228D4
:101AE00075D8686A8007F7D42078400760D5E86920
:101AF0000027C00008D4E86940F08050E861E86938
:101B0000012700F0805000905C480168C90513D49B
:101B10000168834641F480710160FFF76DF88246E9
:101B200006E000BFFFF768F8A0EB0A0064284ED873
:101B3000DBF80000C005F5D5E06801280AD008B13F
:101B4000052813D0286A20F001002862286A20F0B6
:101B5000040002E0286A40F001002862E06841F2D7
:101B6000883B98B1FFF748F882460BE0286A40F0BE
:101B700004002862EEE700BFFFF73EF8A0EB0A0181
:101B800059455AD8286A8007F6D50CE0FFF734F893
:101B9000824605E0FFF730F8A0EB0A0159454CD822
:101BA000286A8007F6D41FB1E86920F08050E86108
:101BB000E06988B36968C1F38101022944D0022831
:101BC000C6F8608004D0FFF717F8044638E034E028
:101BD000FFF712F8074604E0FFF70EF8C01B0228D3
:101BE0002BD828688001F7D4206AB0F5803F05D152
:101BF0006868A16820F4003008436860D4E90801EF
:101C00000843696821F4741108436860C6F860905D
:101C1000FEF7F2FF044606E025E000BFFEF7ECFF0A
:101C2000001B022809D828688001F7D51BE000BFF7
:101C3000FEF7E2FF001B022802D90320BDE8F88F5F
:101C400028688001F4D40EE00128F7D06868226A81
:101C500000F48031914204D1616A00F4701088422E
:101C600001D00120EAE70020E8E700000010024070
:101C70000000424280044242800000200070004088
:101C800010B5401EB0F1807F01D3012010BD4FF090
:101C9000E02460610F21601701F09EFE0020A0612A
:101CA00007202061002010BDFEE70000F0B50023F2
:101CB0000A24302537261F4611E000BFB4EB107F01
:101CC00002D905EB107C01E006EB107C01F813C093
:101CD00001EB430C00015B1C8CF80170DBB29342FA
:101CE000ECD3F0BD2DE9F04186B0002436480094D5
:101CF000019402940394816941F01001816181692A
:101D000001F010010491816941F020018161816934
:101D100001F020010491816941F004018161816930
:101D200001F004010491816941F008018161806939
:101D3000264F00F008004CF20F05049000222946BF
:101D40003846FEF754FFDFF888800022072140461E
:101D5000FEF74DFF42F69070CDE900046946384623
:101D60000294FEF743FE0095022601250396CDE975
:101D7000015469463846FEF739FE0720CDE90005D3
:101D8000CDE9024669464046FEF730FE4FF46070EA
:101D9000CDE90004694640460294FEF727FE042080
:101DA000CDE9000469460B480294FEF71FFE4FF48C
:101DB0007E70CDE90004694607480294FEF716FEDE
:101DC00006B0BDE8F08100000010024000100140A4
:101DD0000008014000140140000C014010B5002231
:101DE0000F49104800F0CAFC08B1FEF75EFD0E492D
:101DF0000C4800F0A7FE08B1FEF757FD0B49094853
:101E000000F0C8FA08B1FEF750FD064800F0F0FEF9
:101E1000002803D0BDE81040FEF747BD10BD00000C
:101E200014000020905F002060010020640000206A
:101E3000FEE7FEE72DE9F84F044640F68F7B48F6B3
:101E40000F7A4FF002094FF4806874E1B0F8441043
:101E500011F00F063AD030F8267039047DD530F8ED
:101E6000261001EA0B0141F0800120F8261006EB54
:101E7000860004EBC00595F8740105F5B4750028DB
:101E80006CD0E87802286AD02878226832F82010CE
:101E900048F68F73194048F2C003194322F8201006
:101EA0002878D4F800C03CF82010BCF85020490431
:101EB0007ED509EBC000111808EB41003CF800008A
:101EC0008005800D009074D02A89D8E0C9062DD4F1
:101ED000018801EA0A0141F400410180216804F10E
:101EE0002805B1F850202B7809EBC300024408EB19
:101EF0004200085AC0F309006064E16B0844E063E3
:101F000000212046FEF735FF94F8240000289CD0DD
:101F1000A869002899D194F82400216840F0800035
:101F2000A1F84C00002084F8240004E1018804F5A5
:101F3000B4750A0521D5B0F850202B78062101EBA5
:101F4000C3010A4408EB4201405A04F52C71C0F366
:101F50000903EB61EA88206802E0ACE068E07AE01F
:101F600001F0E2FC2168088800EA0B0040F08000E4
:101F700008802046FFF779FBDDE00904D5D501880C
:101F800001EA0B0141F0800101802068B0F8502087
:101F90002B78062101EBC3010A4408EB4201405AA9
:101FA00083059B0DEB6110D0696971B1EA8801E08E
:101FB00058E056E0206801F0B7FCE9696869084418
:101FC000686100212046FEF7DDFE206801880905D2
:101FD0002DD4B0F850100844296900F20C4051B1DA
:101FE0003E2910D84A08C90700D0521C4FF6FF718D
:101FF00001EA82210FE0018821F4F8410180018883
:1020000041F4004107E04A09C90600D1521E4FF4CD
:10201000004141EA82210180206801884BF68F72DD
:10202000114081F4405148F280021143018082E066
:10203000D4F800C0BCF850102A78062000EBC2008B
:10204000014408EB41003CF800008005800D009041
:102050001AD0EA8813E03A4629462046FEF7F0FEF9
:10206000009011E0062101EBC000111808EB4100BF
:102070003CF800008005800D009005D06A89034679
:102080006046696901F050FCE96900980844E8611C
:102090006969009808446861A86918B129690098BD
:1020A000814204D929782046FEF76CFE03E02946D8
:1020B000206801F01FF938063DD506EB860004EBD9
:1020C000C001206830F8262002EA0A0242F40042E9
:1020D00020F8262091F82B002831032804D018B1CD
:1020E000022824D1F80522D42368B3F850200D78B3
:1020F00009EBC500024408EB4200185A8A69C0F394
:10210000090082420CD9121A8A610BD04A69024432
:102110004A61CA691044C861206801F0EBF80AE01E
:1021200000208861E9B22046FEF723FE03E03A462C
:102130002046FEF7F8FE2068B0F8441009043FF589
:1021400085AE0020BDE8F88F70477047FEF75ABD96
:1021500030B595B028216846FEF7EFF814210AA89B
:10216000FEF7EBF818210FA8FEF7E7F801210804A5
:10217000CDE900100024029402250491CDE9075016
:102180004FF4E01009906846FFF7EAFB08B172B619
:10219000FEE70F20CDE90A054FF48060CDE90C4041
:1021A00002210AA80E94FFF709FB08B172B6FEE7F8
:1021B000102014940F900FA8FFF78AFA002801D07E
:1021C00072B6FEE715B030BD70472DE9F041D0F88A
:1021D000C032D0F8B822CAB101EB810500EB85040A
:1021E0000026E7693FB103EBC5039B6BB7FBF3F533
:1021F00003FB157323B1C2F814620020BDE8F0811F
:1022000000231A46E66100F080FCF6E70220F5E7BD
:1022100070B50546D0F8B84200F07BFBC4F80C025C
:10222000D5F8B80248B1D5F8BC12D4F80402CA688F
:1022300004F503719047002070BD022070BD70B599
:1022400004460026812100F0B7FA0025012120462E
:10225000E56200F0B1FA82212046C4F86C5100F02A
:10226000ABFA2564D4F8B80248B1D4F8BC0204F53E
:102270002E7440688047206800F017FE25603046C5
:1022800070BD10B5D0E9AE4159B194F80002FF28F5
:1022900007D08B6894F8012221469847FF2084F8E4
:1022A0000002002010BD00000A2101800048704794
:1022B000880000204321018000487047D80000209A
:1022C0004321018000487047940000204321018091
:1022D000004870471C0100202DE9F041044600260B
:1022E000007C4FF40077012590B340230222812126
:1022F000204600F063FB4023E562022201212046D4
:1023000000F05CFB0823032282212046C4F86C51B4
:1023100000F054FB4FF40770256400F0C7FDC4F8CB
:10232000B802F8B10546D4F8BC0200688047002026
:10233000C5F81402C5F81802207CD5F8042298B11B
:1023400040230121204600F045FB3046BDE8F081E6
:10235000FFE73B4602228121204600F02FFB3B464F
:10236000E562CAE70126F0E73B46EAE710B5D0F898
:10237000B81269B1027C002AD1F8042205D04023AA
:10238000012100F027FB002010BD4FF40073F7E798
:10239000022010BD02460220002902D00020C2F80F
:1023A000BC127047D0F8B802C0F804120020704781
:1023B000D0F8B802C0F81022C0F808120020704708
:1023C0002DE9FC410546D0F8B87200208DF80000D8
:1023D000ADF80400064608780C4610F0600121D0E4
:1023E00020293BD1E288AAB10006607807D5D5F84C
:1023F000BC128B6839469847E288394626E087F850
:102400000002A07987F80102E2883946284600F0E8
:102410006AF828E0D5F8BC12607800228B68214663
:10242000984720E0607820B10A2809D00B2815D100
:1024300010E095F89C02032810D1022201A905E0C2
:1024400095F89C02032809D101226946284600F02C
:1024500064F808E095F89C02032804D02146284639
:1024600000F036F802263046BDE8FC8110B5D0F801
:10247000B812A1B1D1F814220AB1012010BD012275
:10248000C1F81422D1F810220263B1F8102293B2DD
:10249000D1F80822812100F038FB002010BD022075
:1024A00010BD10B5D0F8B42252689047002010BD7E
:1024B000134610B50A46002100F08CFA002010BD2A
:1024C000134610B50A46002100F01FFB002010BD86
:1024D00010B50446802100F0FDFA2046BDE810400A
:1024E000002100F0F7BA10B50323C0F85C21C0F852
:1024F0009432C0F8602113460A46002100F06AFABF
:10250000002010BD10B505210023C0F894121A4612
:10251000194600F05FFA002010BD10B50223C26119
:10252000C0F89432026213460A46002100F0EDFA28
:10253000002010BD10B504210023C0F894121A46E3
:10254000194600F0E2FA002010BD000010B50A465E
:10255000024903A000F0E2F8004810BD54620020D8
:1025600043444320436F6E66696700001220088071
:10257000004870473400002010B50A46024903A005
:1025800000F0CCF8004810BD5462002043444320C2
:10259000496E7465726661636500000004200880FE
:1025A000004870473000002010B50A46024903A0D9
:1025B00000F0B4F8004810BD5462002053544D6937
:1025C00063726F656C656374726F6E69637300002C
:1025D00010B50A46024903A000F0A0F8004810BD5B
:1025E0005462002053544D33322056697274756121
:1025F0006C20436F6D506F727400000010B51A208C
:1026000008800A480168001D0468001D0068081859
:1026100009D008220649FFF749FB05490422103179
:102620002046FFF743FB0248801E10BDE8F7FF1F5E
:102630004A000020F8B504460020ADF800004888A4
:102640000D46010A082948D2DFE801F047040917BE
:1026500047473C45D4F8B012207C0A6819E0207C3A
:1026600002260028D4F8B40205D0C16A684688471B
:10267000014646703EE0816AF8E7C0B206282CD2D7
:10268000DFE800F0030A1014181CD4F8B002426806
:1026900005E0694690471CE0D4F8B0028268E2B1D8
:1026A000207CF6E7D4F8B002C268F8E7D4F8B002AC
:1026B0000269F4E7D4F8B0024269F0E7D4F8B00256
:1026C0008269ECE7207C40B9D4F8B402416B6846DB
:1026D000884701460EE0207C20B129462046FFF7BE
:1026E000F7FEF8BDD4F8B402016B6846884701468E
:1026F00007204870BDF8000048B1EA8852B1824214
:1027000000D90246ADF800202046FFF706FFE88812
:102710000028E6D12046FFF70DFFF8BD70B5002375
:1027200000281ED00446002502E06D1CEDB2641C9A
:102730002678002EF9D1022404EB45041480127887
:10274000CA545B1C0322CA5400245B1C06E0CA5412
:102750005B1CDAB28C54521CD3B2401C0278002AA3
:10276000F5D170BD01004FF0000004D0012901D067
:10277000022901D0022070470120704710B580B1B6
:10278000D0F8B43213B10023C0F8B43209B1C0F8A4
:10279000B012012180F89C12027000F0BFF80020F6
:1027A00010BD022010BD10B5D0F8C002FEF71AFB14
:1027B000BDE81040FFF7D6BF10B5D0F8C002FEF755
:1027C000EBFABDE81040FFF7CDBF2DE9F041174609
:1027D000044651B1D4F8B40242691AB194F89C028B
:1027E000032851D00220BDE8F081D4F894320025AE
:1027F00004F11400022B03D0042B3AD0C3B33CE005
:10280000D0E903639E4207D9F11AC1608AB2394602
:102810002046FFF755FE12E08068B0FBF3F103FBA2
:10282000110199B9984211D3D4F8981288420DD267
:10283000002211462046FFF743FEC4F898520023B9
:102840001A461946204600F0C5F816E0D4F8B4023E
:10285000C16829B194F89C02032801D12046884719
:102860008021204600F036F92046FFF74BFE04E0B9
:10287000FFE78021204600F02DF994F8A0020128FE
:1028800004D184F8A05201E0204690470020AAE736
:1028900070B51546044649B1D4F8B40282691AB13C
:1028A00094F89C02032830D0022070BDD4F8941212
:1028B00004F5AA70032902D005291ED027E0D0E92B
:1028C00003218A420BD9531AC3600846834200D3BE
:1028D00003469AB229462046FFF7EAFD17E0D4F8EE
:1028E000B402016929B194F89C02032801D1204661
:1028F00088472046FFF71EFE09E000200146C4F885
:102900009402204600F0E6F801E0204690470020BF
:1029100070BDD0F8C002FEF79EBC000010B50446A2
:102920001C481D49C0F8E842C4F8C00201600821F3
:1029300041600221816000218161C1610162FEF775
:10294000D9FD08B1FDF7B1FF0022D4F8C002182369
:10295000114604F53074FEF7EDF95823002280216A
:102960002068FEF7E7F9C023002281212068FEF7E6
:10297000E1F94FF48873002201212068FEF7DAF9AB
:102980004FF48073002282212068FEF7D3F90020E3
:1029900010BD0000DC810020005C00400A0601F050
:1029A0007F01D0F8C00201EB810100EBC10002D52C
:1029B00090F82A00704790F86A01704710B51C46DD
:1029C0001346D0F8C0022246FEF74EFCBDE8104088
:1029D000FFF7C8BE10B5D0F8C002FEF775FCBDE821
:1029E0001040FFF7BFBE70B50022044640231146D9
:1029F000FFF7E4FF40260125C4F864613346002256
:102A000080212046C4F85851FFF7D8FF6662A561BF
:102A100084F89C520020C4F894026060C4F8A402B8
:102A2000D4F8B80228B1D4F8B40200214268204694
:102A30009047002070BD90F89C12042903D190F8B3
:102A40009D1280F89C120020704710B590F89C12DF
:102A5000032904D1D0F8B412C96901B18847002014
:102A600010BD01740020704710B5D0F8C002FEF709
:102A7000E8FDBDE81040FFF775BE70B5044600F5EF
:102A80002A70054600F04AF80120C4F89402B4F810
:102A9000AE02C4F8980294F8A80210F01F010AD000
:102AA00001290DD0022910D000F08001204600F04D
:102AB00011F8002070BD2946204600F09EF8F8E786
:102AC0002946204600F0CAF9F3E72946204600F0DF
:102AD0001DF9EEE710B5D0F8C002FEF70EFCBDE818
:102AE0001040FFF73FBE10B5D0F8C002FEF7C4FD9E
:102AF000BDE81040FFF736BE90F89C1280F89D129A
:102B0000042180F89C120020704710B5D0F8C00254
:102B1000FEF72CFCBDE81040FFF724BE0A780270D7
:102B20004A7842708A78CB7802EB032242800A7995
:102B30004B7902EB032282808A79C97902EB012169
:102B4000C18070470246002011B1C2F8B41270472C
:102B50000220704710B5D0F8B42202241AB11268CE
:102B6000904700B90024204610BD000070B50E4605
:102B70001E4D897804462970012931D894F89C02A9
:102B800002280BD003280FD031462046FFF7A0FCC7
:102B900029782046BDE87040FFF783BCD9B10320F7
:102BA000616084F89C0209E071B16068884212D0CB
:102BB000C1B22046FFF775FC297861602046FFF717
:102BC000C9FF02280CD006E0022084F89C022046AF
:102BD0006160FFF766FC2046BDE87040FFF7AABCC5
:102BE00031462046BDE87040FFF772BC84000020EB
:102BF00010B5FFF778FF002010BD2DE9F0410A78ED
:102C0000002612F0600208D0202A01D0402A70D19C
:102C1000D0F8B422926890476DE04B7800220125ED
:102C20000A2B66D2DFE803F0405D6557650805654D
:102C30002C29FFF7FFFC5EE004468888D8B9C888D5
:102C4000C8B94888802816D200F07F0794F89C0203
:102C5000032810D084F89E7239462046FFF704FFFF
:102C60002046FFF767FC1FB1022084F89C0242E077
:102C700084F89C523FE020463BE0FFF777FF3AE0C4
:102C8000CB88012B35D190F89C32012B04D0022B3C
:102C900002D0032B2DD104E08260012200F1080153
:102CA00016E00122011D13E090F89C22012A03D0B6
:102CB000022A01D0032A1CD1CA88022A19D1C56070
:102CC000D0F8A41209B10321C160022200F10C0165
:102CD000FFF723FC0FE0498801290CD1C0F8A4526A
:102CE00011E090F89C32012B08D0022B06D0032B68
:102CF00004D0FFF7EDFB3046BDE8F081498801299B
:102D0000F9D1C0F8A422FFF715FCF4E72DE9F04152
:102D10000A46044610780027097910F060030AD0AB
:102D2000202B01D0402B50D1D4F8B4021146836837
:102D3000204698478FE0C0F34110012806D0507814
:102D4000D0B301282AD003283FD107E0D4F8B40239
:102D5000114683682046BDE8F041184794F89C026C
:102D6000022802D0032872D10AE071B380296ED004
:102D70002046FFF7AFFE80212046FFF7ABFE6AE05A
:102D8000508838B931B1802904D0D08810B9204694
:102D9000FFF7A0FE2046FFF7CDFB5CE094F89C0215
:102DA0000228E2D0032852D1508898BB4806F1D0BF
:102DB0002046FFF7F8FCEDE7FFE794F89C020026B9
:102DC000022803D0032842D112E040E009B1802953
:102DD0003DD1080601F07F0000EB800004EB80018C
:102DE00001D5143101E001F5AA7102220E602AE03A
:102DF000080601F00F0000EB800004EB80000AD50C
:102E0000806920B301F07F0000EB800004EB8005B7
:102E100014350BE01FE0D0F85801C0B101F07F007D
:102E200000EB800004EB800505F5AA7541B180290F
:102E300006D02046FFF7B2FD10B10120286000E067
:102E40002E60022229462046FFF767FB03E0114669
:102E50002046FFF73DFB3846BDE8F08170B50546DA
:102E600008780C4610F0600003D0202801D04028DC
:102E700016D195F89C02012803D0022801D003281E
:102E80000ED1207901280BD8D5F8B40282682846E3
:102E90009047E188014306D12846FFF74BFB02E04B
:102EA0002846FFF715FB002070BD704700487047AB
:102EB000BC7F00202DE9F0470C78002630F8243044
:102EC00048F68F121340CA78002A7DD0012A7CD0A0
:102ED000022A02D0032A7FD0012648F2800213433F
:102EE00020F824300D7830F8254048F68F731C40C8
:102EF0002C43144320F825400D7B48F2C00C48F6C3
:102F0000BF744CF280074BF68F79EDB391F80080D7
:102F1000C24630F8285048F280181D4045EA08059E
:102F200020F82A50B0F8505091F80080054405EB85
:102F30000815B1F8088028F00108A5F80084B0F859
:102F4000505091F80080054405EB0815B1F80A804F
:102F500028F00108A5F808844D78002D0D7830F888
:102F600025804FEA48487DD0B8F1000F07DA30F8E5
:102F7000258008EA030848EA070820F825800F782A
:102F800030F827506D0600E02CE006D530F82750C9
:102F90001D4045EA0C0520F82750CB780D78012B11
:102FA00030F8253003EA040301D083F020031343F3
:102FB00020F825300B7830F8231001EA090111437D
:102FC00020F82310304602E003E008E004E0BDE80A
:102FD000F08743F4007380E743F4C0637DE743F474
:102FE00080637AE74D782DB3B0F850500F780544E0
:102FF00005EB0715CF8827F00107A5F800740F78B7
:1030000030F827506D0606D530F827501D4045EAA8
:103010000C0520F82750CB78012B06D00B7830F820
:103020002310214081F02001C9E70B7830F82310EC
:103030002140C4E7B0F850400D78044404EB051477
:10304000CD8825F00105A4F80854B0F850400D785B
:10305000044404EB05140D6904F20C4475B13E2DD3
:1030600014D800E030E04FEA550CED0701D00CF128
:10307000010C4FF6FF7505EA8C2511E0258825F433
:10308000F8452580258845F4004509E04FEA551CA0
:10309000ED0601D1ACF1010C4FF4004545EA8C2559
:1030A00025800D7830F82540640405D530F825409A
:1030B0001C403C4320F825400B7830F8231001EAEF
:1030C000090181F440517AE7B8F1000F07DA30F8CE
:1030D000258008EA030848EA070820F825800F78C9
:1030E00030F827506D0606D530F827501D4045EAC8
:1030F0000C0520F827500D7830F8253003EA090335
:1031000083F44053134320F825308EE700207047A6
:103110002DE9F04391F80C804F780A7848F6BF7C8F
:103120004BF68F7948F2800348F2C0054CF28006D6
:1031300048F68F74B8F1000F28D0002F30F82270B5
:103140004FEA474748D0002F05DA30F82270274071
:10315000374320F822700A7830F822707F0605D5B0
:1031600030F8227027402F4320F822700D7830F875
:1031700025202240324320F825200C7830F82420E6
:1031800002EA0C021A4320F824201AE07FB130F83A
:103190002260760605D530F8226026402E4320F8BE
:1031A00022600A7830F8221001EA0C010EE030F8B3
:1031B00022506D0405D530F822502540354320F8C3
:1031C00022500A7830F8221001EA0901194320F848
:1031D00022100020BDE8F083002F05DA30F82270BD
:1031E0002740374320F822700A7830F822607606AC
:1031F00005D530F8226026402E4320F822600E7854
:1032000030F8262022402A4320F826200C7830F877
:10321000242002EA09021A4320F82420C1E70020F2
:10322000704700207047012120F8401F00210180D5
:10323000818001820846704730F8401F21F43F41E9
:103240000180002070470020704730B50A7BB2BB78
:103250004A7848F68F7548F28004C2B10B7830F88E
:103260002320520607D530F823202A4048F2C00513
:103270002A4320F82320CA78012A20D00A7830F87F
:10328000221048F6BF73194081F0200114E00A783B
:1032900030F822305B0407D530F822302B404CF256
:1032A00080052B4320F822300A7830F822104BF6A4
:1032B0008F73194081F44051214320F822100020DF
:1032C00030BD10B54A780978002A48F2800330F8FA
:1032D000212005D048F6BF74224082F0100204E09D
:1032E0004BF68F74224082F480521A4320F821203A
:1032F000002010BD2DE9F0470E464B78097B0446AF
:103300004FF0000948F68F7248F2800A4FF6FF77B7
:103310004FF40048012B09D000296ED0F078022824
:103320006CD001286BD00120BDE8F087B569306909
:10333000854200D90546C9B1F17848F280130229C7
:1033400023D0317834F821001040184324F82100AC
:10335000306A401B3062307834F8201049067178AA
:103360007ED500297DD001297CD03FE1ABB2F28827
:103370002046716900F0F6FAB4F850003178204424
:1033800000EB0110A0F80454EAE0316A81426AD9E6
:10339000317834F821001040184324F82100306AB5
:1033A000401B3062307834F82010490671786CD5B3
:1033B00011B1012924D02AE0B4F85010214401EBC6
:1033C000001000F20C404DB13E2D0FD86908EA07FD
:1033D00000D0491C07EA8121018018E0018821F40E
:1033E000F8410180018841F40041F5E76909EA06E6
:1033F00000D1491E48EA8121EEE79CE1BCE126E2CA
:10340000B4F85020111901EB0010A0F80C54728987
:10341000ABB22046716900F0A5FA7069284470616A
:103420003169306A884202D9401B306202E00546A9
:10343000C6F82090707800287CD1B4F8500031781C
:10344000204400EB011000F204406DB13E2D13D872
:103450006908EA0700D0491C07EA8121018012E0CF
:1034600001E19BE0BBE084E0018821F4F8410180A8
:10347000018841F40041F1E76909EA0600D1491EDB
:1034800048EA8121EAE7328965E011B1012921D0BA
:1034900027E0B4F85010214401EB001000F2044082
:1034A0004DB13E2D0FD86908EA0700D0491C07EA44
:1034B0008121018015E0018821F4F8410180018813
:1034C00041F40041F5E76909EA0600D1491E48EADE
:1034D0008121EEE7B4F85010214401EB0010A0F870
:1034E00004543289ABB22046716900F03BFA70692E
:1034F000284470613169306A884202D9401B3062C9
:1035000002E00546C6F82090707800287ED1B4F815
:1035100050003178204400EB011000F20C4055B10E
:103520003E2D10D86908EA0700D0491C07EA81211E
:1035300001800FE072E0018821F4F84101800188E8
:1035400041F40041F4E76909EA0600D1491E48EA5E
:103550008121EDE77289ABB22046716900F002FA71
:10356000317834F8210048F6BF72104080F0300006
:10357000C0E1327834F8220048F68F63184040EA00
:103580000A0024F82200B4F850003278204400EBFE
:1035900002108BB2A0F804343289DDE7B4F8501081
:1035A000214401EB001000F20C404DB13E2D0FD82C
:1035B0006908EA0700D0491C07EA8121018015E06B
:1035C000018821F4F8410180018841F40041F5E7C8
:1035D0006909EA0600D1491E48EA8121EEE7B4F8FC
:1035E0005020111901EB0010A0F80C547289ABB2F5
:1035F0002046716900F0B6F970692844706131693C
:10360000306A884203D9401B306203E06EE0054611
:10361000C6F82090002DA3D0707858B101287FF40F
:103620001EAFB4F850003178204400EB0110A0F830
:10363000045428E7B4F850003178204400EB01111D
:1036400001F204413E2D06D86808EA0700D0401C6C
:1036500007EA802005E06809EA0600D1401E48EA32
:10366000802008800FE711B1012921D027E0B4F8AC
:103670005010214401EB001000F204404DB13E2DEA
:103680000FD86908EA0700D0491C07EA81210180A8
:1036900015E0018821F4F8410180018841F40041DE
:1036A000F5E76909EA0600D1491E48EA8121EEE7FB
:1036B000B4F85010214401EB0010A0F804543289F2
:1036C000ABB22046716900F04DF970692844706111
:1036D0003169306A884202D9401B306202E00546F7
:1036E000C6F82090002D96D0707858B101287FF44C
:1036F00020AFB4F850100819317800EB0110A0F891
:103700000C5427E7B4F850003178204400EB011145
:1037100001F20C413E2D06D86808EA0700D0401C93
:1037200007EA802005E06809EA0600D1401E48EA61
:10373000802008800EE7B1693069814202D9091AF8
:10374000B161B5E00846C6F81890B1E0088820F4E9
:10375000F8400880088840F400400BE03E2875D807
:103760004208C00700D0521C07EA822002E000BFD6
:1037700048EA82200880B5E093B9B4F85000317867
:10378000204400EB0110316900F2044069B13E2988
:1037900013D84B08C90700D05B1C07EA83210180BE
:1037A000707888B1012832D03AE0018821F4F841DC
:1037B0000180018841F40041F1E74B09C90600D1BD
:1037C0005B1E48EA8321EAE7B4F8500031782044D0
:1037D00000EB0110316900F20C4049B13E290FD8CD
:1037E0004B08C90700D05B1C07EA8321018017E062
:1037F000018821F4F8410180018841F40041F5E796
:103800004B09C90600D15B1E48EA8321EEE7B4F8F4
:1038100050100819317800EB0110318AA0F80C140F
:10382000F069A8B3317834F82100430401D5430688
:1038300003D444F24003184254D134F8210010401C
:1038400048F2C002104324F821004BE03CE0B1698B
:103850003069814202D9091AB16102E00846C6F80E
:1038600018908BB9B4F850103278214401EB021152
:1038700001F2044168B13E2813D84208C30700D0C2
:10388000521C07EA82220A80717889B1012921D06D
:1038900028E00A8822F4F8420A800A8842F40042AA
:1038A000F1E74209C30600D1521E48EA8222EAE744
:1038B000B4F850103278214401EB021101F20C41AE
:1038C00000287FF44BAF41E74209C0067FF450AFB8
:1038D000521E4DE7B4F850201119327801EB021155
:1038E000A1F80C04317834F821004BF68F721040A7
:1038F00080F4405040EA0A0024F82100002013E53B
:103900000021A0F844104FF43F41A0F840100020DF
:10391000704700000148FDF743BD0000DC81002036
:10392000B0F844007047000010B500EB42005C089E
:1039300000F5806009D000BF30F8042B01F8012B9E
:10394000120A01F8012B641EF6D1DA0701D00088B3
:10395000087010BD0020704711B98021A0F84C10EC
:103960000020704710B55B1C00EB42005B0800F5BF
:10397000806009D011F8012B11F8014B42EA0422B2
:1039800020F8042B5B1EF5D110BDFEE710B5114CDD
:10399000227AEAB16368E21802F5805292F8912324
:1039A0000A6003EB4301C1EBC31104EBC101093110
:1039B000FCF74CFC60680021401C6060052800DBBF
:1039C0006160D4E90002824200D12172012010BD61
:1039D000002010BD546400200907090E002804DBF4
:1039E00000F1E02080F80014704700F00F0000F1B3
:1039F000E02080F8141D70471CB5FDF70BF9FEF7A9
:103A0000A7FBFEF76FF9FEF7E9F90024624900947D
:103A10006048019408600846FCF76CFF08B172B674
:103A2000FEE7A3460094002269465B480194FCF738
:103A30003EFF08B172B6FEE7102269465648FCF711
:103A400036FF08B172B6FEE7FCF7F6FEFCF78AFD1A
:103A500000215148FCF79BFF504CDFF844A14F492F
:103A600050481031FFF792FF01283DD14D4DA87805
:103A70008146303800F07EF94B4A4C4B00F092F909
:103A80008846297807466878303901EB81016FF064
:103A90002F02064602EB4101084400F06BF93A465A
:103AA000434600F0BFF800F08BF8414900F062FB9C
:103AB000404900F041FC00F01FFC6060C4E902696D
:103AC000B0F5805F0AD200213348FCF760FF002286
:103AD000114631486368FCF74DFF01E0C4F804B0BB
:103AE0000A213048FCF729FC6068E8B32D481438F7
:103AF000FCF760FD2B4A2070143A2F496088138828
:103B000021F8103001EB400355885D80D2889A80FF
:103B1000C01C80B241F270726080904227D30020B6
:103B20004FF6FF7CA1EB420531F810300CEA40065D
:103B30001F0AAF552E4401EB400773707B88C01CF1
:103B40004FEA132886F80280F370BB8880B21F0A00
:103B500037717371831C9342E6D30F48A4F802B007
:103B600042F6E061143000E001E0FCF74FFE642013
:103B700000905546DAF80460FDF7B6FE0F49B0FB39
:103B8000F1F000994843009068680099801B8842D2
:103B9000FAD364E7007400409C010020000000207C
:103BA000001000E0845F00209A9999999999B93F93
:103BB0000000484200F07F459030002040420F0056
:103BC00021F00042A2F16052B2F5801F01F00043E3
:103BD00028BFD2F17F6C0BD95FEA001C43EAC20216
:103BE00042EB507018BF704728BF20F001007047AB
:103BF000B2F5801FBCBF184670474FEA410C1CF558
:103C0000001F02D2084600F05EBC70B500F074F9E7
:103C100000000089FFF7F6BF4FF00040A0F58000DC
:103C20007047000010B591EA030F48BF83F00043CE
:103C300000F1BE81841A71EB030C05D2121943EB1B
:103C40000C03001B61EB0C01DFF824E14FEA115477
:103C5000A4EB135C1EEA430F18BF9EEA445F73D0C7
:103C600023EA0E03DCF1200E21EA045143F4801311
:103C700032D322FA0CFE10EB0E0023FA0CFE41EBBD
:103C80000E01CCF1200E03FA0EFE10EB0E0051F1E6
:103C90000001B1F5801FCCF1200E32D201EB0451AE
:103CA00012FA0EF2BDE8104058BF7047401C38BFF2
:103CB0005FEA420218BF7047002814BF20F00100DD
:103CC00041F100014FEA410313F5001F38BF70476F
:103CD000A1F1C04100F05EB9012A43EB0302ACF14F
:103CE000200CDCF11F0E32BF4FF0000E23FA0CF354
:103CF00010EB030041EB0451B4EB115FD0D0A1EB0A
:103D0000045101F5801149085FEA300001EB0451CC
:103D10000ED350F1000038BF12FA0EFE08D1BDE8F4
:103D20001040C9E7401C38BF5FEA4202CAD1C3E76E
:103D3000BDE810404FEA410313F5001F38BF70473C
:103D4000A1F1C04100F026B99EEA445F08D011EA13
:103D50005E0FBDE8104004BF01F000410020704735
:103D6000BDE8104070B500F0C7F800BF64FBBE3E70
:103D70000000E0FF10F0004248BF4042B0FA80F37C
:103D800010FA03F10AD0C3F11D0303F580634FEA73
:103D9000415002EB035202EBD12170474FF000007B
:103DA00070470000DFF848C170B51CEA111E1EBF45
:103DB0001CEA13159EEA0C0F95EA0C0F00F06F80B9
:103DC00081EA030423EA4C134EEAD47E21EA4C1123
:103DD00041F4801143F48013AE44A1FB024CA0FBDC
:103DE0000365AEF17F7E361955EB0C05A1FB034C44
:103DF0004CF10003A0FB021C16EB0C06654153F1CD
:103E00000003094218BF46F0010613F4007F0BD1EE
:103E10004FEA03314FEA0530340341EA155140EAD5
:103E200016506FF003020AE04FEAC3214FEAC520A3
:103E3000F40241EA555140EA56506FF0020202EB9B
:103E40002E4201EB025585EACE710AD05FEA440C9E
:103E500018BF24F0004450F1000041F1000120EAB5
:103E6000D47040F2FE7C624500D270BDA84214BFFF
:103E70004FF080444FF04044002E08BF0024BEF1B4
:103E8000806FA8BFA1F1C041BDE8704080F2828080
:103E90004FF0000001F1C04101F0004170479EEA7F
:103EA0000C0F0CEA131518BF95EA0C0F06D04FF053
:103EB000000081EA030E0EF0004170BD00F01CF816
:103EC0008900013E00F007B800F009B84FEA430C42
:103ED0005FEA5C5C08D081EA030100F05BB84FEA5E
:103EE000410C5FEA5C5CF6D14FF00000014970477D
:103EF0000000FF070000F87F0EF1020E2EF0030E07
:103F00005EF8046B364205D4012A43EB030515F530
:103F1000001F12D8012841EB010C1CF5001F0CD822
:103F20000ED14FEAD17C15F5001F0CEB4C0C0CF1B7
:103F3000020C08BF4CEBD37C04E04FF0080C01E00E
:103F40004FEAD37C0CEB4C0526FA05F606F0070683
:103F5000B6F1040C06D20EEB860CBDE870404CF0B6
:103F6000010C6047DFE80CF0090B02024FF0004142
:103F70004FF00000A1F5002170BD19461046012840
:103F800051EB010418BFD4F5001484BF002001F0E8
:103F9000004170BD0808A0F500114FEA31017047DB
:103FA00010B591EA030F48BF83F000433FF542AEDE
:103FB000841A71EB030C07D212198CF0004C43EBFE
:103FC0000C03001B61EB0C01DFF8A4E14FEA115474
:103FD000A4EB135C1EEA430F18BF9EEA445F00F097
:103FE000B08023EA6E03524221EA0451C3EB6E0310
:103FF00038BF5B1EDCF1200E25D322FA0CFE10EB3D
:104000000E0043FA0CFE41EB0E01CCF1200E03FA38
:104010000EFE10EB0E0051F10001CCF1200E29D460
:1040200012FA0EF201EB0451BDE8104058BF704780
:10403000401C1CBFB2F1004F704700280CBF491C48
:1040400020F00100704712EB020E43EB030218BF91
:104050004FF0010E4EEA4202ACF1200CDCF11E0ED4
:1040600054D943FA0CFE10EB0E0051F1FF31CCF1A4
:104070001E0ED5D50EF1010E12FA0EFE404141EB97
:10408000010101EB445C5FEA5C5C10D910EBDE706F
:1040900001EB045138BFBEF1004FBDE8104018BF1E
:1040A000704700280CBF491C20F00100704730D237
:1040B0004FEAD42C11F5001124F400641BD0B1FA9E
:1040C00081F20B3AA41AA41ED2F12003914030FAD7
:1040D00003F31943904001EBCC71002C01EB045128
:1040E000BDE81040A8BF704701F1C0414FF000008B
:1040F00001F000417047B0FA80F310FA03F100D1EB
:1041000010BDE41A173C4805C90AE4E701EB045165
:1041100010BD491001EB0451BDE810404FEA3000DA
:1041200002E04FF0000170474A0008BF0042F8D09B
:10413000B2F5001F28BF704701F000414FF00000AA
:1041400070479EEA445F07D011EA5E0FBDE8104059
:1041500004BF002100207047BDE8104070B5FFF794
:10416000CBFE00BF40DFF63E83F0004110467047B3
:104170000000E0FF4FF47F0C1CEAD0121EBF1CEAC7
:10418000D11392EA0C0F93EA0C0F00F0858090EAAD
:10419000010F48BF42F4807240F4000C41F400006B
:1041A0002CF07F4120F07F4000B58142A2EB03025A
:1041B0000FF2081CACEB504EC0F100009EF800E07E
:1041C0004FEA4E0E00FB0EFC38BF49004FEA2C1C94
:1041D00002F5FA020CFB0EF34FEACE1E4FEA112C49
:1041E0004FEAC1210EEB635E42EB22420EFB0CFC58
:1041F0004FEA1C5300FB03114FEA112C4FEA013127
:104200000EFB0CFC4FEADC4C00FB0C11C14228BF3A
:1042100009184CEB03335DF804EB10EB410143EB61
:10422000C250B2F57C0F38BF704729D512F0F00F9D
:104230001CBF00F1C04000F0004070470081828345
:104240008485868788898B8C8D8E8F9192939596A5
:1042500097999A9C9D9FA0A2A3A5A7A8AAACAEB02F
:10426000B2B3B5B7B9BCBEC0C2C5C7C9CCCED1D434
:10427000D7D9DCDFE2E6E9ECF0F3F7FAFE00000064
:104280004FEA400C0CF1807CBCF17E4F28BF704798
:10429000B0F1C04000F017B990EA010F0CEAD11359
:1042A00048BF42F48072624538BF634507D213F4B9
:1042B0007F0F16D080EA010000F00040704710B573
:1042C00000F0BBF8097EFC3E00F005B880EA010072
:1042D00000F00040704780EA010000F0004000F06C
:1042E000F2B812F47F0F04BF0248704780EA010061
:1042F00000F0E9B80000C07FC10DD1F19E0206DBDD
:104300004FEA002343F0004323FA02F070470042D3
:1043100007D54FEA4001B1F1FE4F02D24FF0000045
:10432000704710B500F089F849922480002070474A
:104330006FEA2000704700004FF47F0C1CEAD01297
:104340001EBF1CEAD11392EA0C0F93EA0C0F00F087
:10435000478090EA010F48BF42F480724FF0004C52
:104360004CEA00204CEA012102EB0302A0FB0113FE
:10437000A2F50002002918BF43F001035B0028BF2B
:104380004FEA330342EB22425FEA132C4CEBC2505C
:104390002EBFBCEB436FB2F57C0F70474FEA036C46
:1043A000BCF1004F08BF20F00100B2F57C0F38BF10
:1043B00070470BD582F0FF0212F5803FC8BF7047EF
:1043C00000F1C040D8BF00F00040704700F5000C7D
:1043D0005FEA4C0C48BF7047B0F1C04000F073B8C2
:1043E00090EA010F0CEAD11348BF42F48072624593
:1043F00038BF634504D280EA010000F000407047F6
:1044000010B500F01AF800BF8900013E00F007B8AF
:1044100000F009B85FEA410C5FEA1C6C08D080EA42
:10442000010000F050B85FEA400C5FEA1C6CF6D166
:104430004FF00040A0F5800070470EF1020E2EF004
:10444000030E5EF8044B244204D44FEA4102B2F159
:104450007F4F11D84FEA4003B3F17F4F0CD80ED1F4
:104460004FEAD07CB2F17F4F0CEB4C0C0CF1020CFC
:1044700008BF4CEBD17C04E04FF0080C01E04FEAA0
:10448000D17C0CEB4C0324FA03F404F00704B4F1E0
:10449000040C06D20EEB840CBDE810404CF0010C6D
:1044A0006047DFE80CF0070802024FF00040A0F57B
:1044B000800010BD0846420018BFD2F1807288BF4C
:1044C00000F0004010BDFF2141EAD050C005704708
:1044D00000000000000000000102030406070809B4
:1044E00000450008000000209C0100006C0100084D
:1044F000C44500089C0100208C890000C801000808
:104500000114136D251B089D041AA9041AD1041A5D
:10451000FD041A4D041A7904170403090412011446
:1045200002020216408304405726020102030103DF
:104530001A1A0313A1071B089B041A97041AC5042F
:10454000192F1182105324F4130A0632022A401C38
:104550001C090243571125C03209041B01020B1329
:104560000524161001052401100901042402020586
:104570002406170107058203081C1009048D320A5E
:104580001D07050102432C070581070938442A400D
:10459000072A8107112B0907440A3B044413D92237
:1045A0001B083F0413C12342081A830C13CB211BA1
:1045B000081108C11AC1101AB5041ACD041AA904A9
:0445C00032010000C4
:0400000508000131BD
:00000001FF
